:020000040000FA
:0600000002011A02281B98
:03002B00022FD0D1
:03003300022FA8F1
:0300530002288EF2
:03006B00022F4F12
:03007B00022F77DA
:10008300022687E5C754F84401F5C7790122000029
:100093000080FB120086B90003020104E47944786E
:1000A30008B800028004F709D8FCE4794C7802B858
:1000B30000028004F709D8FCE4900281787A790879
:1000C3008002F0A3D8FCD9FA784390014A7A01BAA6
:1000D30000028007E493A3F608DAF97AFA7B099021
:1000E300014B787B79078015E493A3AD82AE838AB5
:1000F300828B83F0A3AA82AB838D828E83D8E9D9C6
:10010300E77582B975838B740412012C758291751E
:100113008300740012012C75D00075814D754181E7
:10012300754202759F00020096C09FF59FE473D04D
:100133009F22D083D082C09FE493C0E0740193C018
:10014300E0740293F59F2201FF0000B40000280031
:100153002800283075A000A000A000A0000008001F
:1001630008E001F000100010001000100010001053
:100173000050005000500010001000D00700000095
:100183000000000F0001000500307507001000019A
:100193000081FF00000000FFC309E109C909FF0254
:1001A300020208025000A0000000E80302F28301EB
:1001B3000000C58302EC83010000510A02E48301BD
:1001C3000000B30202EC83010000520A02E0830143
:1001D3000000C90202EC83010000530A02FE8301FE
:1001E3000000CB0202EC83010000540A02DC830806
:1001F3000000CC0202EC83010000550A02DA8301FD
:100203000000560AFF0100FF2002F283010000B63E
:100213008302EC83010000BA0A02DE8300000000BF
:100223000002E6830300001903990F990F990F99B0
:100233000F990F990F990F990F990F990F990F997B
:100243000F990F2D1245122712FFFF0A0953656EEE
:10025300736F72546167051250002003020A000293
:100263000105544920424C452053656E736F72203B
:1002730054616700D007E803E803E803E803E803F1
:100283004F1400007F1485148B14971491149D143C
:10029300A314A914AF1412416363656C2E20446147
:1002A3007461000A416363656C2E20436F6E662E92
:1002B300000A0A416363656C2E20506572696F649E
:1002C3000002F283010000C88302EC8301000048AE
:1002D3000B10D581010000730702E683030000764B
:1002E3000702E883010000490B02EC83010000557B
:1002F3000B10E5810300007C0702E8830100005630
:100303000B02EC83010000630B10F5810300006412
:100313000B02E883010000650B124261726F6D2EC0
:100323002044617461000A4261726F6D2E20436F35
:100333006E662E00024261726F6D2E2043616C69FE
:1003430062722E000A0A4261726F6D2E205065722E
:10035300696F640002F283010000CB8302EC830126
:100363000000CB0B1035820100007F0702E68303F8
:100373000000830702E883010000CC0B02EC830139
:100383000000D80B104582030000890702E88301AF
:100393000000D90B02EC83010000F60B1065820309
:1003A3000000F70B02E883010000F80B02EC830165
:1003B3000000E60B1055820100008A0702E6830362
:1003C30000009A0702E883010000E70B12436F6EF7
:1003D3006E2E20506172616D730008436F6E6E2E36
:1003E30020506172616D7320526571000844697316
:1003F300636F6E6E656374205265710002F2830150
:100403000000D18302EC830100007E0C10A5820161
:100413000000A20702E683030000A80702E88301A5
:1004230000007F0C02EC830100008C0C10B58202EB
:100433000000AE0702E8830100008D0C02EC83018B
:1004430000009E0C108582020000B60702E88301BB
:1004530000009F0C020202020202020202010D00CE
:100463000000100102F283010000BF8302EC83014C
:100473000000060D02D683010000B70702EC8301DA
:100483000000070D02D8830100004A8302EC8301B8
:100493000000080D02E283010000408302EC8301A7
:1004A30000000A0D02FC83010000938002EC83012B
:1004B30000000B0D02FA83010000458302EC830167
:1004C3000000090D02EE830100004F8302EC83015B
:1004D30000000C0D02EA83010000818002EC83011D
:1004E30000000D0D020284010000D58202EC83019D
:1004F30000000E0D0204840100000F0D01E8030546
:100503003F100A124779726F2044617461000A47F1
:1005130079726F20436F6E662E000A0A4779726FF5
:1005230020506572696F640002F283010000B38397
:1005330002EC83010000B50D10B5800100007B08BB
:1005430002E683030000810802E883010000B60D80
:1005530002EC83010000C00D1045810300008708F1
:1005630002E883010000C10D02EC83010000CC0D01
:1005730010D580030000CD0D02E883010000CE0DED
:100583000380000080700061801248756D69642EDD
:100593002044617461000A48756D69642E20436FBD
:1005A3006E662E000A0A48756D69642E20506572C6
:1005B300696F640002F283010000CE8302EC8301C1
:1005C30000003B0E108581010000120902E683033F
:1005D3000000160902E8830100003C0E02EC8301CF
:1005E3000000480E1015820300001C0902E8830175
:1005F3000000490E02EC83010000560E10758203C1
:100603000000570E02E883010000580E1254656D76
:10061300702E2044617461000A54656D702E20436E
:100623006F6E662E000A1E54656D702E2050657223
:10063300696F640002F283010000B08302EC83015E
:100643000000BE0E10B5810100001F0902E68303FE
:100653000000230902E883010000BF0E02EC8301BE
:100663000000CA0E10A581030000290902E88301D6
:100673000000CB0E02EC83010000D70E109581031E
:100683000000D80E02E883010000D90E124D616705
:100693006E2E2044617461000A4D61676E2E204303
:1006A3006F6E662E000A0A4D61676E2E20506572CA
:1006B300696F640002F283010000BC8302EC8301D2
:1006C30000003E0F1065810100002C0902E6830340
:1006D3000000320902E8830100003F0F02EC8301AE
:1006E30000004A0F105581030000380902E8830116
:1006F30000004B0F02EC83010000570F10358103FC
:100703000000580F02E883010000590FFF00013079
:100713007503020106000000000000000000000055
:1007230000000000000000000000000000000000C6
:1007330000FFFF0600800CE803104B657920507220
:100743006573732053746174650002F283010000C2
:10075300B98302EC83010000EB0F02F88300000071
:10076300E80902E683030000E90902E883010000C7
:10077300EC0F02546573742044617461000A54657C
:10078300737420436F6E6669670002F28301000091
:10079300C28302EC83010000241010E580030000F3
:1007A300F10902E883010000251002EC8301000037
:1007B3002F10102581030000F90902E883010000CE
:1007C3003010120135ABF503120135C2F5031201E6
:1007D30035F3F5031201352EF60312013558F603EE
:1007E30012013582F60312013599F603120135B071
:1007F300F603120135C7F603120135F0F6031201B1
:100803003503F70312013519F7031201352CF703EA
:1008130012013553F703120135A2D002120135A696
:10082300D102120135DED10212013501D2021201C9
:10083300350CD2021201352FD2021201353ED302FA
:1008430012013513D4021201358ED402120135166A
:10085300D50212013551D50212013588D502120194
:100863003516D602120135EFD6021201354FD702E3
:100873001201355AD702120135D9D702120135DCDC
:10088300D702120135DFD7021201356ED8021201E9
:100893003571D802120135A1D802120135CBD80225
:1008A300120135B9D9021201356BDA021201351181
:1008B3009D03120135399D03120135679D03120112
:1008C300359E9D03120135FC9D03120135479E039E
:1008D300120135929E03120135D29E03120135187F
:1008E3009F03120135469F0312013503A003120132
:1008F300350DA0031201351AA0031201354DA003D3
:1009030012013519A10312013525A1031201353D49
:10091300A10312013547A103120135AF8704120168
:1009230035BD8704120135D58704120135ED8704DF
:10093300120135008002120135AC80021201352705
:1009430081021201354882021201358482021201AA
:10095300352D830212013514840212013578850284
:10096300120135CF8502120135508602120135403E
:1009730087021201358D8702120135138802120195
:1009830035458802120135598A021201359B8A02C4
:10099300120135B98A021201353C8B02120135105E
:1009A3008C02120135D88C0212013500800312012A
:1009B30035D380031201357C8103120135CF8103C6
:1009C3001201357F82031201350B8303120135F7C0
:1009D300830312013526840312013539850312017D
:1009E300358185031201355686031201359286033C
:1009F300120135AE8603120135358B0412013563BE
:100A0300FC0212013579FC021201359FFC0212012E
:100A130035BBFD02120135C5FD02120135FAFE0296
:100A2300120135F2FF02120135CA9203120135FA9F
:100A330093031201352D94031201357794031201A8
:100A4300353E96031201359FD20112013509D301B8
:100A530012013568D40112013578D401120135A58C
:100A6300D401120135FCD401120135A5D5011201BF
:100A730035ACD60112013576D701120135D6D8012E
:100A830012013519D901120135BED9011201350BF5
:100A9300DA0112013531DA011201353FDC011201AD
:100AA3003544DC0112013549DE0112013596DE01C0
:100AB30012013509DF011201353CDF01120135DE78
:100AC300DF0112013587E001120135BFE001120198
:100AD30035C2E0011201350AE1011201354AE10193
:100AE300120135A1E1011201350CE3031201352492
:100AF300E3031201356CE30312013582E3031201B0
:100B030035C9E303120135DDE4031201356AE50358
:100B1300120135B5E503120135EC4C00120135F82D
:100B23004C00120135334D00120135784D0012018E
:100B330035384E00120135BE4E00120135234F00E9
:100B43001201354F4F00120135884F00120135C68F
:100B53005100120135AA53001201359055001201BC
:100B630035D35600120135215900120135335A008D
:100B73001201357E5B001201358E5C00120135AB2C
:100B83005C00120135E65C00120135085D001201BC
:100B9300356B5D001201352C6200120135C1620014
:100BA3001201351263001201353963001201358BCE
:100BB3006300120135A963001201350364001201B9
:100BC30035EC6400120135626600120135E66600F9
:100BD300120135CEA103120135D8A1031201351B31
:100BE300A20312013536A203120135C6A203120174
:100BF30035EEA2031201352BA30312013562A303C1
:100C03001201358BA30312013500A403120135151C
:100C1300A4031201352AA4031201355BA4031201B4
:100C2300356FA40312013594A403120135CEA40336
:100C3300120135FAA40312013532A503120135B1AD
:100C4300A503120135FAA50312013524A6031201E7
:100C5300354FA603120135968604120135A1B80259
:100C6300120135CFB8021201351DBA02120135FD4A
:100C7300BA021201351CBB0212013599BB021201E3
:100C830035DCBB0212013532BD02120135F3BD0260
:100C93001201357AC0021201351BC102120135114E
:100CA300C2021201350EC30212013568C4021201D9
:100CB30035F3C4021201358D8104120135F6810426
:100CC3001201354A8204120135718204120135A2E0
:100CD3008204120135EBC10312013558C20312011C
:100CE300359FC203120135B7C303120135B3C403E1
:100CF30012013596C503120135DFE40212013521D5
:100D0300E502120135F3E502120135CCE6021201C8
:100D130035C6E702120135A8E80212013511E902CE
:100D2300120135C7E9021201353BEA02120135A768
:100D3300EA02120135D0EA021201354AEB0212012E
:100D430035E3EB0212013548EC021201355DEC028A
:100D5300120135A3EC02120135BCEC02120135215C
:100D6300ED0212013524ED0212013513E0031201E5
:100D7300353BE00312013579E00312013537E10316
:100D83001201359EE103120135BAE103120135E286
:100D9300E10312013512E20312013521E2031201CC
:100DA300359EE203120135C4E2031201358EE201DE
:100DB3001201356CE4011201359EE601120135DAA8
:100DC300E60112013507E701120135F1E7011201CE
:100DD300353CE80112013587E80112013599E80134
:100DE300120135D9E8011201350EE9011201355C12
:100DF300E9011201358BE901120135AEE901120156
:100E030035FBE90112013580EA011201359AEC0143
:100E1300120135D9EE011201351AEF01120135BC69
:100E2300F001120135FDF00112013570F1011201DB
:100E330035C6F1011201358CAB021201358AAC02C1
:100E430012013523B30212013544B5021201350FE5
:100E5300B70212013577B8021201354D670012014E
:100E630035FC67001201352968001201356F6800EF
:100E7300120135AF6900120135456B00120135BF10
:100E83006B00120135DA6B00120135556C0012014B
:100E930035AF6D001201350F6F001201351570006B
:100EA3001201357671001201358F7100120135ED93
:100EB3007100120135DB72001201350E730012014D
:100EC300357E7300120135F8730012013542740048
:100ED3001201350C7500120135E17500120135C0A0
:100EE30076001201354B7700120135B977001201F4
:100EF300352D780012013558780012013517790025
:100F03001201357C7A00120135997A00120135B845
:100F13007A00120135A97B00120135CE7B00120144
:100F230035F87B00120135737C00120135CD7C004E
:100F3300120135367E00120135E47E00120135259B
:100F43007F00120135F0F1011201353EF201120169
:100F5300354AF20112013528F30112013559F30123
:100F63001201358AF3011201350AF40112013542E7
:100F7300F40112013594F401120135D1F401120187
:100F830035EEF60112013514F901120135FFFA01AC
:100F9300120135E9FC01120135F0FF01120135158B
:100FA30099011201354599011201351EA001120163
:100FB30035A3A101120135A0A70112013588A801AB
:100FC300120135C5A801120135E8A801120135192E
:100FD300A90112013522A9011201352CA90112011F
:100FE300351AAA0112013510AB011201350684012D
:100FF3001201350588011201350B880112013546AE
:101003008F011201355F9401120135D6D20312010B
:10101300356CD30312013582D303120135F8D303A0
:101023001201356CD403120135AAD4031201351E03
:10103300D50312013597D503120135A0D50312014B
:1010430035ACD503120135C1D503120135FFD503E4
:1010530012013515D60312013574D6031201355822
:10106300C60312013565C6031201357FC60312019B
:1010730035BEC603120135FCC60312013561C70331
:1010830012013576C70312013581C7031201358E6C
:10109300C703120135A5C703120135B3C7031201F4
:1010A30035BEC703120135CAC703120135D9C703B9
:1010B300120135E4C70312013507C803120135AE27
:1010C300C803120135BEC803120135D8C803120183
:1010D30035F5C80312013511C90312013536C903A9
:1010E30012013541C90312013556C9031201356A8C
:1010F300C903120135CBC903120135D1C90312014A
:1011030035D7C903120135DDC903120135F5C9030A
:1011130012013528CA03120135629D02120135E618
:101123009D02120135959E02120135F49F021201B0
:101133003515A20212013501A30212013536A302AD
:1011430012013558A30212013507A402120135FF1B
:10115300A50212013528A602120135BAA602120110
:1011630035ECA602120135F9A60212013550A70289
:1011730012013576A702120135E3A902120135E601
:10118300AA021201353EAB02120135F18E021201A1
:1011930035FB8F02120135E29002120135EC900209
:1011A3001201350E91021201351A9102120135B363
:1011B3009202120135E29202120135FE93021201EC
:1011C30035579402120135BD95021201359C9602E2
:1011D300120135F89602120135659702120135A006
:1011E3009702120135DF9702120135989A02120114
:1011F30035B29A021201353E9B021201354C9B0215
:10120300120135A59B02120135B39B02120135264B
:101213009C021201358A9C02120135D49C021201F0
:101223003574C50212013596C502120135BCC702D9
:10123300120135D1CA02120135E9CB021201359CE4
:10124300CC021201357ECD0212013510F9031201D1
:101253003535F903120135A7F903120135E9F40213
:10126300120135F2F402120135FBF402120135D2F8
:10127300F50212013583F702120135B9F7021201A3
:1012830035F3F70212013529F80212013563F8022A
:1012930012013597F802120135C3F8021201350C19
:1012A300F90212013546F9021201358FF9021201D2
:1012B30035E7F9021201351CFA0212013577FA02F9
:1012C300120135B1FA0212013502FB02120135385F
:1012D300FB0212013572FB02120135A0FB0212015F
:1012E30035C3FB02120135008A041201352C8A042E
:1012F300120135878A04120135918A04120135A13E
:101303008A0412013548ED021201355DED02120126
:1013130035B9ED0212013524EE021201356CEE02ED
:10132300120135DEEE021201350DEF021201351BFB
:10133300EF021201357DEF02120135BBEF021201FC
:1013430035D6EF0212013571F0021201351AF1029E
:101353001201359DF102120135D6F10212013561F8
:10136300F202120135B8F20212013517F30212012B
:101373003529F3021201354FF30212013558F302F6
:10138300120135B2F4021201352A84041201350820
:101393008504120135EBEA0312013530EB03120128
:1013A3003576EB0312013508ED0312013586880407
:1013B300120135A18804120135B1880412013508E0
:1013C3008904120135557F00120135238703120169
:1013D3003543870312013549880312013595880384
:1013E300120135B5880312013508890312013575D9
:1013F3008903120135BB89031201351F8A031201C8
:1014030035CB8C031201354C8D03120135E8820470
:101413001201351983041201354383041201356324
:101423008304120135C1830412013567C00112011F
:101433003527C30112013515C70112013547C7010D
:1014430012013572C70112013566C801120135E96F
:10145300C801120135C1C901120135ECC9011201DC
:101463003517CA0112013542CA011201356DCA018D
:10147300120135A4CA01120135CFCA01120135FA8E
:10148300CA01120135A1CB0112013546CC0112016B
:1014930035EDCC0112013592CD011201353BCE0160
:1014A300120135E2CE011201358ACF0112013557FF
:1014B300D001120135E5D001120135AAD101120183
:1014C3003532B40312013585B403120135AEB403CA
:1014D30012013564B503120135CDB503120135DBB5
:1014E300B60312013588B8031201355D8D0312016D
:1014F30035B08D03120135D98D03120135FA8E03F0
:101503001201358D8F03120135DC90031201358DE5
:101513009203120135A5CA03120135F8CA03120159
:101523003515CB03120135EACB031201356BCC031E
:1015330012013542CD03120135B5CE03120135F147
:1015430097031201351698031201355198031201BE
:1015530035AB8A0412013500300012013511330016
:10156300120135A434001201354F3500120135F252
:1015730035001201358A3600120135B936001201E1
:1015830035723B00120135093C00120135453D001F
:10159300120135AD3D00120135613E0012013517D0
:1015A3004100120135514100120135BB41001201C6
:1015B30035194200120135774200120135D4420039
:1015C300120135C343001201350944001201354E9F
:1015D3004400120135714400120135B8450012016F
:1015E30035CC4500120135D54600120135144700AC
:1015F300120135404700120135934700120135B4FB
:101603004700120135F24700120135384A00120132
:1016130035794A00120135144B001201357F4B0016
:10162300120135B84C0012013558BD03120135AB18
:10163300BD03120135D4BD031201358ABE03120165
:1016430035F3BE0312013501C003120135AEC103E8
:10165300120135CEF303120135DEF30312013523F4
:10166300F40312013501F50312013599F503120153
:101673003565F70312013598F703120135B6F70301
:101683001201354FF8031201356CF803120135FED0
:10169300F803120135ABFF0312013564850412010F
:1016A300357485041201358885041201359086044A
:1016B3001201350CDD03120135B6DD03120135F8D5
:1016C300DF031201354CED0312013566ED03120100
:1016D30035C9ED0312013537EE03120135EDEE0383
:1016E3001201350CEF031201351CEF031201355BB8
:1016F300EF0312013598EF03120135B5FA03120116
:1017030035EFFA0312013562FB03120135ACFB031B
:10171300120135EBFB03120135FDFB0312013532D8
:10172300FC0312013556FC03120135A5FC0312011B
:1017330035D7FC0312013569FD03120135E5FD03BD
:10174300120135A4D603120135B8D603120135E1CF
:10175300D6031201350AD703120135D2D70312017A
:10176300351DD803120135D4D90312013500800485
:10177300120135338004120135AF8004120135CFD5
:1017830080041201353481041201357C8104120175
:10179300357F810412013577A60312013590A60324
:1017A30012013526A70312013517A8031201356C60
:1017B300AA03120135ACAA03120135EEAA031201E2
:1017C30035AAEF03120135BBEF0312013504F00311
:1017D30012013530F00312013550F003120135EFD9
:1017E300F003120135C2F103120135F7FD031201B3
:1017F3003546FE03120135D6FE0312013560FF03A1
:10180300120135F87F00120135DFE503120135C6F9
:10181300E70312013532E8031201357DE8031201B3
:10182300359FAF03120135F2AF031201351BB0032D
:10183300120135D1B0031201353AB1031201354813
:10184300B203120135F5B3031201350CAB031201D8
:10185300355FAB0312013588AB031201353EAC0390
:10186300120135A7AC03120135B5AD031201356280
:10187300AF03120135C5B80312013518B9031201BC
:101883003541B903120135F7B90312013560BA03C3
:101893001201356EBB031201351BBD03120135D492
:1018A300F1031201353BF203120135F8F203120181
:1018B3003576F303120135E6D90312013519DA033C
:1018C30012013521DB0312013545DC03120135DC3E
:1018D300DA02120135B8DB02120135FFDB02120115
:1018E300353CDC02120135AADC0212013504DD02AB
:1018F30012013574DD021201354CDE021201353F4F
:10190300DF02120135B6DF0212013559E10212017D
:1019130035E6E10212013559E202120135D5E20240
:10192300120135ECE20212013519E402120135739A
:10193300E40212013528AD01120135C0B1011201D3
:1019430035B1B401120135DAB401120135F1B40134
:101953001201351AB501120135CCB501120135B0AA
:10196300B701120135EAB8011201351EBE01120199
:101973003557BE011201359BBE01120135A7BF01C8
:1019830012013580E803120135D3E803120135381B
:10199300E90312013504EA03120135AEEA03120129
:1019A30035548904120135E5CE0312013538CF03CE
:1019B30012013561CF03120135FDCF0312013554F6
:1019C300D00312013557D10312013599D203120105
:1019D30035C4FF011201358DFF03E066701008A3C3
:1019E300E066700A08A3E066700408A3E06622C3F9
:1019F300E7960809E7960809E7960809E79622C3D8
:101A0300E09608A3E09608A3E09608A3E09622C018
:101A130021C3E096F52108A3E096422108A3E096AE
:101A2300422108A3E09645217001D3D02122080862
:101A330008EAC0E0EBC0E086F0E7A4FA180986F0F4
:101A4300E7A42AFA180986F0E7A42AFA180986F007
:101A5300E7A42AFA1986F0E7A4FBE5F02AFA1908A5
:101A630086F0E7A42BFBE5F03AFA190886F0E7A421
:101A73002BFBE5F03AFA18180986F0E7A4C5F02B1A
:101A8300FBE43AFA1908E7C5F0C6A426F6E5F03BED
:101A9300FBE43AFA1886F0E7A4F6E5F00826F6E444
:101AA3003B08F6E43A08F6D0E0FBD0E0FA22E4CFB4
:101AB300C0E0E4CEC0E0E4CDC0E0E4CCC0E075F02B
:101AC30020E626F608E633F608E633F608E633F6AC
:101AD300181818EC33FCED33FDEE33FEEF33FFC380
:101AE300EC9709ED9709EE9709EF97191919400F2C
:101AF300FFEC97FC09ED97FD09EE97FE191906D542
:101B0300F0BFECF709EDF709EEF709EFF71919192B
:101B1300D0E0FCD0E0FDD0E0FED0E0FF226016086C
:101B23000808C6C313C618C613C618C613C618C6F4
:101B330013C6D5E0EA2270090808082260161818AF
:101B430018C6C333C608C633C608C633C608C63369
:101B5300C6D5E0EA22E627F60809E637F60809E6DD
:101B630037F60809E637F622E026F608A3E036F64C
:101B730008A3E036F608A3E036F622E026F008A331
:101B8300E036F008A3E036F008A3E036F022C3E61F
:101B930097F60809E697F60809E697F60809E6971F
:101BA300F622C3E096F008A3E096F008A3E096F0CF
:101BB30008A3E096F022E657F60809E657F6080967
:101BC300E657F60809E657F622E056F608A3E0566C
:101BD300F608A3E056F608A3E056F622E056F0080E
:101BE300A3E056F008A3E056F008A3E056F022E085
:101BF300F608A3E0F608A3E0F608A3E0F622E6F071
:101C030008A3E6F008A3E6F008A3E6F022E0FAA3AF
:101C1300E0FBA3E0FCA3E0FD22EAF0A3EBF0A3ECDE
:101C2300F0A3EDF022E0F8A3E0F9A3E0FAA3E0FBD0
:101C330022E8F0A3E9F0A3EAF0A3EBF022CAC0E0A4
:101C4300E6F0A308DAFAD0E0FA22CAC0E0E0A3C5BE
:101C530082CCC582C583CDC583F0A3C582CCC582A2
:101C6300C583CDC583DAE6D0E0CA22C3E498F8E49D
:101C730099F9121CAF8026C3E49AFAE49BFBE9208E
:101C8300E7E9121CAFE498F8E499F922C3E498F861
:101C9300E499F9121CAFE498F8E499F9C3E49AFAC9
:101CA300E49BFB22EB20E7CFE920E7E0B90010BB80
:101CB3000008E88AF084F8AAF022E4FBC8FA22EBD1
:101CC30070227B10C833C8C933C9335007C39AC3C2
:101CD300DBF280069A50012ADBEAC833F4C8C93321
:101CE300F4C9FA2275F008E4C833C8C933C933C943
:101CF3009AC99B5004C92AC93BD5F0ECFBC833F4FD
:101D0300C8E4C9FA22600D08C6A2E713C618C613B1
:101D1300C6D5E0F322600C08C6C313C618C613C6A3
:101D2300D5E0F422700422600D18C6C333C608C67A
:101D330033C6D5E0F41822254110AF08F541400C15
:101D430015428008F54140021542D2AF2200C0D0AF
:101D5300254110AF08F541500C05428008F541506C
:101D6300020542D2AFD0D0222541F58210AF08F54B
:101D730041400C15428008F54140021542D2AF851F
:101D83004283222541F582E43542F583222541F839
:101D9300E43542F9222541FAE43542FB222541FC90
:101DA300E43542FD22E4732541C582C0E0E54234B7
:101DB300FFC583C0E0E541C3958224F810AF0885D1
:101DC30083428582418008858342858241D2AFCE9A
:101DD300F0A3E520F0A37821E608F0A3DEFAEFF004
:101DE300A3E58124FAF8E608F0A3E608F0A3E608E1
:101DF300F0A30808E608F0A3E608F0A3158115810F
:101E0300D0E0FED0E0F8158115811581E8C0E0EE41
:101E1300C0E0222541C582C0E0E54234FFC583C04E
:101E2300E0E541C3958224F910AF0885834285829A
:101E3300418008858342858241D2AFCEF0A3E5205D
:101E4300F0A37821E608F0A3DEFAEFF0A3E58124FE
:101E5300FBF8E608F0A3E608F0A30808E608F0A3F9
:101E6300E608F0A315811581D0E0FED0E0F81581D6
:101E73001581E8C0E0EEC0E022854283854182E01F
:101E8300A3FEE0A3F5207821E0A3F608DFFAE0A3A0
:101E9300FFE0A3C0E0E0A3C0E0E0A3C0E0E0A3C094
:101EA300E0E0A3C0E010AF0885824185834280084B
:101EB300858241858342D2AFD083D08202013285AD
:101EC3004283854182E0A3FEE0A3F5207821E0A3CD
:101ED300F608DFFAE0A3FFE0A3C0E0E0A3C0E0E080
:101EE300A3C0E0E0A3C0E010AF0885824185834230
:101EF3008008858241858342D2AFD083D08222C0BD
:101F0300D02541C582C0E0E54234FFC583C0E0E58A
:101F130041C3958224F310AF0885834285824180B3
:101F230008858342858241D2AFC8F0A3E9F0A3EAD2
:101F3300F0A3EBF0A37921E709F0A3D8FAECF0A31F
:101F4300EDF0A3EEF0A3EFF0A3D0E0F0A3D0E0F028
:101F5300A3D0E0F0A3E520F0A3E5F0F0A3228542AF
:101F630083854182E0C0E0A3E0F9A3E0FAA3E0FBAC
:101F7300A37821E0F608A3DFFAE0FCA3E0FDA3E0E9
:101F8300FEA3E0FFA3E0C0E0A3E0C0E0A3E0F5D040
:101F9300A3E0F520A3E0A3F5F010AF088583428505
:101FA30082418008858342858241D2AFD082D0832B
:101FB300D0E0F8D0E0327404800674028002740129
:101FC300C0E0F404121D6BD0E0121C4022740480A4
:101FD3000474028000CCC0E0EDC0E0E541C39CCCBA
:101FE300AD4250011D10AF068C418D4280068C41DD
:101FF3008D42D2AF121C4DD0E0FDD0E0FC22D08345
:10200300D082E9C0E0E493A3C386F0C5F095F0F96C
:1020130008E493A386F0C5F095F0700BE493A3C393
:10202300994005E9048002A3E475F002A42582F532
:1020330082E5F03583F583D0E0F9E493A3C0E0E4CF
:1020430093C0E022D083D082ECC0E0EDC0E0E49303
:10205300A3FCE493A3FDED4C600D122093EC24FF4D
:10206300FCED34FFFD80EFE493A3FCE493A3FDEDCB
:102073004C600D1220D2EC24FFFCED34FFFD80EF09
:10208300D0E0FDD0E0FCE493A3C0E0E493C0E02201
:10209300C0E0C3E49396087401939618400FE49349
:1020A30066700808740193661870007019A3A3C3BF
:1020B300E49396087401939618A3A3400DD0E0D03F
:1020C300E0D0E0022083A3A3A3A3A3A3D0E022C074
:1020D300E0C0F088F0E49366700808740193661812
:1020E3007000A8F0A3A3700BD0F0D0E0D0E0D0E054
:0A20F300022083A3A3D0F0D0E02266
:1021000074F5121E16EAFEEBFFEE2434F8EF3400ED
:10211000F988218922EE2435F582EF3400F583E039
:10212000F8EE2437F582EF3400F583E0F523EC85F3
:1021300023F0A4FCAAF08523F0EDA42AFDE82CF8F6
:10214000E43DF97A257B00121CAFEA8521828522C5
:1021500083F0F8740758F97401B900028004C3339E
:10216000D9FCFAE8131313541FF8EE28F8EF3400E3
:10217000F9E8245DF582E93400F583E05A6008EE61
:102180002434F582EF802CEE2434F582EF3400F510
:1021900083E0C0E0EE2436F582EF3400F583E0F50D
:1021A000F0D0E084A8F0EE28F8EF3400F9E8243805
:1021B000F582E93400F583E0F97F04021EC274F56C
:1021C000121E16EAFEEBFFEE2434F582EF3400F522
:1021D00083E0C0E0EE2435F582EF3400F583D0E0F3
:1021E000F08E828F83A3A3A3A3A3A3A3C082C083E3
:1021F0008E828F83A3A3A3A3A3E0F8A3E0F9D083E7
:10220000D082E0C398F521A3E099F522EE247FF572
:1022100082EF3400F583E064017069EE2480F5827A
:10222000EF3400F583E0F8A3E0F98E828F83A3A357
:10223000A3A3A3A3A3E0FCA3E0FD8E828F83A3A3AB
:10224000A3A3A3E0FAA3E0FBC3EA9CEB9D5010C359
:10225000EC98ED99402EC3EA98EB995027800EC375
:10226000EA98EB994007C3EC98ED9940177CDC7D28
:1022700004EEFAEFFB120EF7EE247FF582EF340046
:10228000F583E4F0EE2434F8EF3400F9E8FCE9FDDE
:10229000EE2435F582EF3400F583E0F8EE2437F5CF
:1022A00082EF3400F583E0F523E5218523F0A4F5E2
:1022B00021AAF08523F0E522A42AF522E82521F8B9
:1022C000E43522F97A257B00121CAFEA8C828D83DB
:1022D000F0F8740758F97401B900028004C333D9C7
:1022E000FCFAE8131313541FF8EE28F8EF3400F942
:1022F000E8245DF582E93400F583E05A6008EE24B5
:1023000034F582EF802CEE2434F582EF3400F5832F
:10231000E0C0E0EE2436F582EF3400F583E0F5F01E
:10232000D0E084A8F0EE28F8EF3400F9E82438F57E
:1023300082E93400F583E0F9122F3B0221B9C08213
:10234000C083854182854283E0F8A3E0F9C3EA9C1B
:10235000EB9D5010C3EC98ED99401BC3EA98EB99A4
:102360005014800EC3EA98EB994007C3EC98ED999E
:102370004004790180027900D083D08222EAC39C94
:10238000FAEB9DFB2274EF121E169003A2E0640884
:102390006005E06407702A9061C8E060249003D073
:1023A000E0F4601DE0F875F003A4C8AAF02AF974FF
:1023B000D228FE740339FF8E828F83A3A3A3E0701B
:1023C000030224B5906060E0C0E0EE2468F582EF7F
:1023D0003400F583D0E0F07525457526057521009C
:1023E000752200E5D914F523E5D95403F5276017C4
:1023F00074036527605CE5236010EE2467F582EFC7
:102400003400F583E0700302249A900540E06401F3
:10241000602AEE2482F582EF3400F583E0600478D0
:102420000480027800852321E521C398FA95E0FB1A
:10243000120DBF8A218B22EA452270051210FB8003
:1024400074EE2482F582EF3400F583E070048A256F
:102450008B26E5236012852582852683F524E5D920
:10246000F0A31524E52470F6EE2482F582EF340003
:10247000F583E0604474FC2523F5237825121FBD05
:10248000AC23A927EEFAEFFB120F937402121D5032
:10249000E97026AA21AB221218A5793D8E828F837E
:1024A000A3A3A3A3E0FA7B00120C93EEFAEFFB12B6
:1024B0000F0F120FA579008074740365276056858D
:1024C0002329752A007829121FBDAC25AD26AA2123
:1024D000AB22120F6F7402121D50EE2468F582EFCA
:1024E0003400F583E064807004747F8001E0F5259A
:1024F0007825121FC1E527F5257825121FC1A923CC
:10250000AC21AD229003D0E0FA7B00120C5774028C
:10251000121D5080139003A2E06408600BAC25AD3F
:1025200026EEFAEFFB120FFF12110779017F0A0264
:102530001EC274F5121E1674FC121D3AEAFEEBFF61
:102540008921A2AFE433F522C2AF806AEE2463F89A
:10255000EF3400F97A007B00A2AFE433F523C2AF79
:1025600088828983E0FCA3E0FDEC4D603A88828993
:1025700083E0FAA3E0FB8A828B83E0FCA3E0FD8882
:10258000828983ECF0A3EDF08A828B83E4F0A3F0E0
:1025900088828983E0FCA3E0FDEC4D700A88828983
:1025A00083A3A3E4F0A3F0E523A2E092AF1218A561
:1025B0009004E3E004F0EE2463F582EF3400F58349
:1025C000E0F8A3E0F9E849603DEE2463F582EF34DA
:1025D00000F583E02402FAA3E03400FBEA2402F5CC
:1025E00023EB3400F5247823121FBD8A828B83E00D
:1025F000FCA3E0F9EEFAEFFB120F337402121D5048
:10260000E9700302254C9004E3E060639004E4E089
:10261000F89004E3E0C398500C7402652170509068
:1026200004E5E0604A8E828F83A3A3A3A3E08541E3
:1026300082854283F0A3E4F09004E3E0F874021290
:102640001D86E8F0A3E4F09004E3E0F89004E2E0F3
:1026500028F07402121D86AC82AD838541828542CA
:1026600083AA82AB837901120C639004E3E4F0E562
:1026700022A2E092AF7404121D500221B9000000A2
:102680008544878545C622C0E0C0D0E8C0E0E9C0E7
:10269000E0EAC0E0EBC0E0ECC0E0EDC0E0EEC0E09E
:1026A000C021C022C023C024C082C083C0F0A2AF1A
:1026B000E433FEC2AF759B00906182E0A2E050124D
:1026C000E591A2E0500C7591FE740165447003120F
:1026D0002385E0A2E55051E591A2E5504B7591DFCD
:1026E0009003A2E064076005E0640870237401654C
:1026F00044703579019003D0E0FA75F003A4CAA8BC
:10270000F028FB74D22AFA74033BFB12253280189E
:10271000E0640D70139003C4E004F064287002E4D8
:10272000F07A00E0F912110D906182E0A2E6400318
:102730000227CEE591A2E640030227CE7591BF9015
:1027400003A2E064057008121035121041800312D4
:10275000103B75440012109BE99003A3F07900121E
:10276000108F120E6D7A017B009003A1E0F9121315
:102770005F907803E064427055900544E014F07077
:102780004DC2AF12278600784DD0E0F618D0E0F6A3
:10279000E59F540770057522FF800375227FC4C032
:1027A000E0784CE6F52108E65522F522740B7821F5
:1027B000121D18D0E02521F8906270E0A2E740F8E1
:1027C000E8C333906272F0906270E0D2E0F0906102
:1027D00081E0A2E35009E5E9A2E3500375E9F7A31C
:1027E000E0A2E75009E591A2E7500375917FEEA2C0
:1027F000E092AFD0F0D083D082D024D023D022D0AA
:1028000021D0E0FED0E0FDD0E0FCD0E0FBD0E0FA4B
:10281000D0E0F9D0E0F8D0D0D0E032C0E0C0D0C0F5
:1028200082C083906183E0A2E05009E5BFA2E0503E
:102830000375BFFEE0A2E15009E5BFA2E1500375B8
:10284000BFFDE0A2E25009E5BFA2E2500375BFFB65
:10285000E0A2E35009E5BFA2E3500375BFF7E0A291
:10286000E45009E5BFA2E4500375BFEFE0A2E550D4
:1028700009E5BFA2E5500375BFDFE0A2E65009E518
:10288000BFA2E6500375BFBFD083D0828088C0E06E
:10289000C0D0E8C0E0E9C0E0EAC0E0EBC0E0ECC0D6
:1028A000E0EDC0E0C0F0E5A7A2E6500FE5A1A2E68A
:1028B000500953A7BF75A1BF1228F3E5A7A2E550A1
:1028C0000CE5A1A2E5500653A7DF75A1DFE5A7A29D
:1028D000E15009E5A1A2E1500375A1FDE5A7A2E23F
:1028E000500CE5A1A2E2500653A7FB75A1FBD0F066
:1028F00002280474F8121E167544019003A2E064C5
:10290000067015120FC38A828B83A3A3A3A3A3A36C
:10291000E0FAA3E0FB121023A2AFE433FED2AF90A3
:1029200003A8E0640170187A207B009003A1E0F90D
:102930001213EF7A207B009003A1E0F91213659047
:102940006182E0D2E6F0900541E0602185C64580D5
:10295000169003A7E064017008E5C654F84405F535
:10296000C653BEFC1226807401654460E4EEA2E00A
:1029700092AF7F01021EC2008E468F4785824B8533
:10298000834A854182854283E0CEA3E0CF854B8296
:10299000854A83EBC9EAC8EDCBECCA75F010C3E8F1
:1029A00033C8E933C9EA33CAEB33CBC3EA9EF549EE
:1029B000EB9FF548B35004AB48AA49EC33CCED3358
:1029C000CDD5F0DAAE46AF472274E9121E1674F880
:1029D000121D3A854182854283ECF0A3EDF08A21F5
:1029E0008B229003A2E024F7C394055006752101C1
:1029F000022B60120FC38A238B24AE23AF24EE4F29
:102A00007003022B5DAC21AD227402121D86AA82D6
:102A1000AB831210538E828F83A3A37525FF752677
:102A2000FF7527FF7528007825121BCC7402121D34
:102A3000867529FF752AFF752BFF752C00782912E2
:102A40001BCC782579291219F2502A782579291278
:102A50001B917521017522C875230075240078210A
:102A600079251219F25052852521852622852723A2
:102A70008528248050752D01752EC8752F0075305E
:102A800000852921852A22852B23852C24782179EC
:102A900025121B91782D79211219F2401C75210005
:102AA00075220075230075240178217929121B9164
:102AB00078217925121B58800C752101752200752B
:102AC000230075240074097821121B39752519F526
:102AD00026F527F52878217925121AB18E828F8361
:102AE000A3A3A3A3A3A3E0F8A3E0F97AD07B0312E6
:102AF0001CAF88258926E4F527F528782179251249
:102B00001B587406121D86E0F8A3E0F97AD07B0307
:102B1000121CAFE8FA8A25E4F526782179251219E6
:102B2000F2500778217925121B919003A2E06408E6
:102B3000600AE064066005E06405702D75250D7877
:102B40002579211219F240217525F47526FF752784
:102B5000FF7528FF78217925121B58800C752100FC
:102B6000752200752300752400854182854283E02B
:102B7000F8A3E0F58388827821121C017408121DE5
:102B8000507F10021EC274F7121E161210659005B7
:102B90003FE064017010906245E4F0A3F053F4F359
:102BA00043FE0C5390F3121011E5C654804449F5CE
:102BB000C6E59E547F644970F8906185740FF0906B
:102BC000053DE0F47002A3E0604E90053EE0600831
:102BD00014601B14602E8040752101752200900541
:102BE0003DE07821121D27E521F45280802A7521CD
:102BF0000175220090053DE07821121D27E521F4A2
:102C00005290801475210175220090053DE07821D5
:102C1000121D27E521F452A079007F02021EC27422
:102C2000F7121E16E9FEEAFF74016E700C7A807BC3
:102C3000009003A1E0F912135F902FF8E493F46081
:102C400008E493F9120E61800953C680E59E547F13
:102C500070FA12101790053FE064017003120E79AC
:102C600090053DE0F47002A3E0604B90053EE0600B
:102C70000814601A14602C803D75210175220090A3
:102C8000053DE07821121D27E5214280802875212D
:102C90000175220090053DE07821121D27E52142B3
:102CA00090801375210175220090053DE078211276
:102CB0001D27E52142A0121065120FC38A218B2225
:102CC000A821A922E8496015E5E170FCE82414F583
:102CD00082E93400F583E0F46003E0F5E174016F0C
:102CE000700A7A019003A1E0F91213B9022C1A7448
:102CF000ED121E168A218B228C238D247413121D33
:102D0000867825121BF2782179251219F27529018E
:102D1000752AC8752B00752C005012782179251260
:102D20001B91782979211219F25016801078257993
:102D300021121B91782979251219F240047901801A
:102D40000279007F0C021EC274ED121E168A218BBE
:102D5000228C238D247413121D867825121BF27881
:102D60002579211219F2401178217925121B91AA97
:102D700021AB22AC23AD248022752900752A007571
:102D80002B00752C0178297925121B91782979213E
:102D9000121B58AA29AB2AAC2BAD2C80A68A828B99
:102DA000837521FF7522FF7523FF7524007821129A
:102DB0001BDF7F04021EC274F5121E168C828D83E7
:102DC0007821121BF28A828B837821121BA5EA24B8
:102DD00004F8EB3400F98C828D83A3A3A3A3E0FC59
:102DE000A3E0FD88828983C3E09CF0A3E09DF08886
:102DF000828983C3E09420A3E0944E40268A828B8C
:102E0000837521FF7522FF7523FF7524FF7821123A
:102E10001B7E8A828B83A3A3A3A3E02420F0A3E0DC
:102E2000344EF0022D9D74F5121E16E9FE9004F743
:102E3000E0FAA3E0FBEEC333F8E433F974F528F5C8
:102E400082748039F583E02AF521A3E03BF52278EE
:102E500021121FBD7A407B427C0F7D0012297874BD
:102E600002121D508A218B228C238D24741078210C
:102E7000121B20AA21AB227F04021EC274F1121E73
:102E8000168A258B268C278D28740F121D86E0FA52
:102E9000A3E0FB7411121D86E0F521A3E0F5227872
:102EA00021121FBDEA2401F521EB3400F522E4F5DF
:102EB00023F52478257921121A31752171752202A2
:102EC00078257921121A31AA25AB26AC27AD281214
:102ED00029787402121D508B22EA452260047A017F
:102EE00080027A00EC2AFCED3400FD7413121D867A
:102EF000E0F8A3E0F9E8FEE9FFECF8EDF97A717B80
:102F000002121CAF882189228E828F837821121CA5
:102F100001ECF8EDF97A717B02121CAF8A218B2249
:102F200074057821121D278E828F83A3A3A3A3E5A6
:102F300021F0A3E522F07F08021EC2C082C083E90F
:102F4000906000F0D083D08222C2AF02000022C085
:102F5000E074F2121F02A2AFE433FED2AFE589A201
:102F6000E05003121785758900C2C5EEF8EEA2E0A5
:102F700092AF7F01021F61C0E074F2121F02A2AF84
:102F8000E433FED2AFE58AA2E64006E58AA2E75026
:102F900003121785758A00758A00C2EBEEF8EEA25F
:102FA000E092AF7F01021F61C0E0C0D0E8C0E0E95D
:102FB000C0E0A2AFE433F8D2AF758B00C2E8E8F905
:102FC000E8A2E092AFD0E0F9D0E0F8D0D0D0E03283
:102FD000C0E0C0D0E8C0E0E9C0E0A2AFE433F8D27E
:102FE000AFC2C7754300E8F9E8A2E092AFD0E0F9BC
:102FF000D0E0F8D0D0D0E032FFFFFFFFFFFFFFFFAF
:1030000074EE121DAA74FA121D3A8A238B24E9FF6A
:103010008C218D227E00852325852426782512206B
:1030200001000410DD3248306B308A30AD30D030D2
:10303000F330243147315E318E313E326132843299
:10304000B232DD32DD32B73174016F701985218201
:10305000852283E0C39403500D852182852283E07D
:10306000900DAEF080027E1802330574026F701569
:10307000852182852283E0F8A3E0F9900DAFE8F086
:10308000A3E9F080027E1802330574016F70198580
:103090002182852283E0C39402500D8521828522FE
:1030A00083E09007C0F080027E1802330574016F40
:1030B0007019852182852283E0C39405500D8521F6
:1030C00082852283E09007C1F080027E18023305DA
:1030D00074016F7019852182852283E0C3940250A8
:1030E0000D852182852283E09007C2F080027E1840
:1030F00002330574106F702775251075260078252A
:10310000121FBDAC21AD227AC37B0712130B7402D0
:10311000121D508A258B2685258285268380027E76
:103120001802330574016F7019852182852283E0AE
:10313000C39402500D852182852283E09007D3F04D
:1031400080027E1802330574016F700D852182851F
:103150002283E0900DB2F080027E180233057404E1
:103160006F702690835C7825121BF2852182852260
:10317000837825121A025011852182852283121C20
:10318000289007D5121C3480027E18023305EF7098
:1031900021120A11E970131215CFE9F525795012A1
:1031A000192FE9F5261215BD800A9008687401F000
:1031B00080027E1802330574076F707D75270675CF
:1031C00028007827121FBD852182852283A3AC8227
:1031D000AD837402121D981213117402121D508ACD
:1031E000298B2A852927852A287C007D00AA41ABC6
:1031F00042852182852283E0F9121563E9F525E5F0
:1032000025C3940A502F120A11E97015A925121529
:10321000D5E9F526795012192FE9F5271215BD8049
:103220001A75260074692525F58274083526F583FC
:103230007401F080067E0280027E1802330574015C
:103240006F7019852182852283E0C39402500D8519
:103250002182852283E09007D4F080027E18023319
:103260000574016F7019852182852283E0C3940A59
:10327000500D852182852283E0900DB1F080027E81
:103280001802330574016F7025852182852283E041
:10329000C394074019852182852283E0C39411508D
:1032A0000D852182852283E0900DB3F080577E1832
:1032B000805374016F7022900867E0F525852182A4
:1032C000852283E0900867F0E5257039900867E073
:1032D000640170311215BD802C7E188028C3E5234F
:1032E0009427E5249400501B74026F701685218288
:1032F000852283E0FCA3E0FDAA23AB241208AFE9FA
:10330000FE80027E02EEF97406121D507F0A021E34
:103310007C74EC121DAA74DA121D3A89268A2B8B52
:103320002C8C238D24743A121D86E0F52590831C85
:10333000AC41AD427406121C4DAC41AD42AA2BAB60
:103340002CA926121563E9FEEEC3940A4003023449
:1033500083EEF912159FE9FF900DAEE06402700450
:10336000740180027400F5217821121FC1AD25EF90
:10337000FCEEF9AA23AB241216117401121D507C25
:10338000147D0079007412121D981213238A278B62
:10339000288527218528227412121DA07A1075F025
:1033A00006EEA42424F9121929E9703B7C1079FF58
:1033B0007412121D98121383E9702C7422121D8648
:1033C000AC82AD837A0475F006EEA42425F91219B7
:1033D00029E9F5217412121DA0EFA2E0E433F9AA45
:1033E00023AB24120939E97406121DA07A0C7470FB
:1033F0002EF9121929E970797406121D9812159385
:10340000752700E527C394045067E527F87900E89D
:1034100075F003A4C8AAF075F000A42AFA75F003A9
:10342000E9A42AF97406121D86E58228F521E583B0
:1034300039F522852182852283E0F8A3E0F9E84965
:10344000602B852182852283A3A3E0F529752A00BC
:103450007829121FBD852182852283E0FCA3E0FD2F
:10346000AA23AB24120B9D7402121D50E90527807C
:1034700092EFA2E1500D9007BFE0F9AA23AB24120E
:103480000BA3E974046525700F900DAEE064027023
:1034900007AA23AB2412160B79007426121D507F45
:1034A0000C021E7C74F2121DAA8924EAFEEBFF8C2A
:1034B000218D2275230AE524600C146009146044F0
:1034C000146064023548EEFAEFFB1215B1E9F523FA
:1034D000E523C3940A5071E5214522606B752506EA
:1034E0007526007825121FBDEEFCEFFDAA21AB2248
:1034F00012130B7402121D508A258B268525828596
:1035000026838044EEFAEFFB1215ABE9F523E523A1
:10351000C3940A5033E5214522602DAA21AB22A98C
:10352000231215A5E98021EEFAEFFB1215B7E9F594
:1035300023E523C3940A5010E5214522600AAA21FD
:10354000AB22A9231215A5E9A9237F06021E7C74CC
:10355000F2121DAA8A258B26E9FE7F1574FF6525C8
:10356000700474FF6526702A752100E521C3940A52
:103570005014EEFC7A027B00A921121581E9600249
:103580007F00052180E5EE60627AF97B15120DA1BE
:103590008059AA25AB26120D838A238B24852321EB
:1035A000852422E521452260407C007D00E5212420
:1035B00005FAE43522FB852182852283A3A3A3A3F8
:1035C000E0F9121563E9F523E523C3940A500EEEE2
:1035D000FC7A027B00A923121581E97F00EE600BC3
:1035E000AA21AB221215F980027F14EFF97F06029F
:1035F0001E7C74EE121DAA8A278B288C238D2474BE
:1036000012121D86E0F525A3E0F52675211574FF3D
:103610006527700474FF6528701E7E00EEC3940A4F
:103620005061AC25AD26AA23AB24EEF9121587E92B
:1036300060037521000E80E4AA27AB28120D838A4F
:10364000298B2AAE29AF2AEE4F60357C007D00EE33
:103650002405FAE43FFB8E828F83A3A3A3A3E0F9A2
:10366000121563E9F522E522C3940A5016AC25AD84
:1036700026AA23AB24A922121587E975210080030D
:10368000752114A9217F0A021E7C74F7121DAAEA73
:10369000FEEBFF9007D9EEF0A3EFF09007BFE0FC40
:1036A0007D007A267B001208AFE9F5219007BFE084
:1036B000F9120B197F01021E7C74F2121DAA74EC20
:1036C000121D3A8A238B24852382852483A3A3E0B9
:1036D00024FA7003023AF824FD700302397514705D
:1036E000030237A914601024FD700302391D147001
:1036F000030239B3023B66AE23AF249007D9E0F84A
:10370000A3E0F9E84960669007D9E0F8A3E0F58303
:103710008882E0F8A3E0F9E8496052EE240CF582D3
:10372000E43FF583E0F5217821121FC1EE240BF56B
:1037300082E43FF583E0F98E828F83A3A3A3A3A342
:10374000A3A3A3A3E0FCA3E0FDEE2403FAE43FFB64
:103750009007D9E0F8A3E0F5838882E0F8A3E0F5CC
:10376000838882121DA87401121D5080398E828FA9
:1037700083A3A3A3A3A3A3A3A3A3121FD49007D59A
:10378000121C1012094B7402121D50E960187901C5
:103790008E828F83A3A3A3A3A3A3A3A3A3E0FAA3CF
:1037A000E0FB120945E9023B66AE23AF248E828F0F
:1037B00083A3E060030238CB8E828F83A3A3A3A3ED
:1037C000A3E0A2E040030238CB900873E0F8A3E046
:1037D000F9E84960030238CB7C0E7D007900AA41EC
:1037E000AB421213238A218B22AA21AB22EE240C96
:1037F000F582E43FF583E0F8A3E0F9E84960367527
:1038000021067522007821121FBDEE240CF582E4FA
:103810003FF583E02410FCA3E03400FD7402121D88
:103820009812130B7402121D508A218B228521825B
:10383000852283804F8E828F83A3A3A3E0FAA3E027
:10384000FB120D838A258B26852521852622E521DD
:103850004522602D7525067526007825121FBDE5C9
:10386000212405FCE43522FD7402121D9812130B6D
:103870007402121D508A258B268525828526838019
:1038800003023B668E828F83A3A3A3A3A3E0A2E2DD
:103890005004D2F08002C2F0A2F0E433F879007450
:1038A0000C121D86E048F0A3E049F0EEFCEFFDAA03
:1038B00041AB42121599E970127A027B009007BF62
:1038C000E0F912135FE97900023B689007D9E0F84C
:1038D000A3E0F9E84960439007D9E0F8A3E0F58355
:1038E0008882A3A3E0F8A3E0F9E849602D8E828FD7
:1038F00083A3E0FC79018E828F83A3A3A3E0FAA3C4
:10390000E0FB9007D9E0F8A3E0F5838882A3A3E069
:10391000F8A3E0F5838882121DA8023B66AE23AFB0
:10392000249007D9E0F8A3E0F9E84960459007D969
:10393000E0F8A3E0F5838882A3A3E0F8A3E0F9E828
:1039400049602F852382852483A3E0FC79028E823F
:103950008F83A3A3A3E0FAA3E0FB9007D9E0F8A329
:10396000E0F5838882A3A3E0F8A3E0F583888212C0
:103970001DA8023B66AE23AF247C007D00EE24042C
:10398000FAE43FFB8E828F83A3A3A3E0F9121563B1
:10399000E9F521E521C3940A5016EE240AFCE43F20
:1039A000FD7A0475F006E521A42425F9121923E90E
:1039B000023B66AE23AF249007D4E06018900DB1AF
:1039C000E0F98E828F83A3A3A3E0FAA3E0FB1209A0
:1039D00045E9023B66900DAEE0701579058E828F49
:1039E00083A3A3A3E0FAA3E0FB120945E9023B6627
:1039F0008E828F83A3A3A3E0FAA3E0FB120D838A38
:103A0000258B268525218526228E828F83A3A3A33D
:103A1000A3A3A3A3E0A2E05071E52145226068853D
:103A20002182852283A3A3A3A3E0605E8E828F837D
:103A3000A3A3A3A3A3A3A3A3A3E0F8A3E0F9E8C4CB
:103A4000540FF87900E85401F8E95400F9E8A2E0CD
:103A50004038740E121DA0E5212405FAE43522FB3E
:103A6000852182852283A3A3A3A3E0F9121563E92C
:103A7000701879038E828F83A3A3A3E0FAA3E0FBDF
:103A8000120945E9023B66023B66EE2405FCE43F71
:103A9000FD852182852283A3A3A3A3E0F98E828FD3
:103AA00083A3A3A3E0FAA3E0FB1216059007D9E0D5
:103AB000F8A3E0F9E849603E9007D9E0F8A3E0F503
:103AC000838882A3A3E0F8A3E0F9E84960287C009A
:103AD00079008E828F83A3A3A3E0FAA3E0FB900773
:103AE000D9E0F8A3E0F5838882A3A3E0F8A3E0F58A
:103AF000838882121DA8806E120A11E970689008EE
:103B000068E06401701A1215CFE9FE90086874002D
:103B1000F07C0A7D0079007A697B08121323803CCF
:103B20007E00EEC3940A50348E21752200746925FC
:103B300021F58274083522F583E06401701BEEF9EB
:103B40001215D5E9F88E2175220074692521F582B8
:103B500074083522F5837400F00E80C6795012196E
:103B60002FE9FE1215BD79017414121D507F060253
:103B70001E7C74F3121DAA74F2121D3A8922EAFE09
:103B8000EBFF8C25AC41AD427A0E75F006E522A420
:103B90002420F9121929E970647C0679FFAA41AB47
:103BA00042121383E97056740C121D86E0F8A3E0EC
:103BB000F9E8F521E5256005EE42218004EEF45296
:103BC00021852123752400740C121D86E065237065
:103BD00004A3E065246022E521F87900740C121D2D
:103BE00086E8F0A3E9F0AC41AD427A0E75F006E547
:103BF00022A42420F9121923E979018002790074A2
:103C00000E121D507F05021E7C74F0121DAA74E670
:103C1000121D3A89248A258B26ECFEEDFF740C12C6
:103C20001DA07A0E75F006E524A42420F9121929A6
:103C3000E96003023D397C0679FF740C121D98126D
:103C40001383E96003023D39AC41AD427A0C7470D4
:103C50002524F9121929E96003023D35752300AACC
:103C600041AB42121593E5254526702E7C0C790058
:103C7000AA41AB42121383E96003023D1B7C0C7D19
:103C8000007900AA41AB421213238A218B2285219D
:103C900082852283752301023D1BAC41AD42AA25DA
:103CA000AB2612158D8A278B28852721852822E5AA
:103CB0002145227030EE4F601BAC41AD427A007B53
:103CC0000012158D8A278B28A827A92888218922E8
:103CD000E849700479008063852182852283E52587
:103CE000F0A3E526F0852182852283A3A3E0F8795D
:103CF00000EE687002EF696022EEC0E085218285E7
:103D00002283A3A3D0E0F0EE4F700D85218285229F
:103D1000837400F0A37400F0752301E5236016AAF4
:103D200041AB42121593AC41AD427A0C747025241C
:103D3000F9121923E9790180027900741A121D50D1
:103D40007F08021E7C74F7121DAAEAFEEBFF7B00BF
:103D5000EBC39404504EEBF87900E875F003A4C867
:103D6000AAF075F000A42AFA75F003E9A42AF9EC88
:103D700028F582ED39F583E06E7003A3E06F7021C2
:103D8000EBF87900E875F003A4C8AAF075F000A478
:103D90002AFA75F003E9A42AF9EC28FAED39FB8038
:103DA000070B80AC7A007B007F01021E7C74F71247
:103DB0001DAA7F00EFC394044003023E5CEFF87934
:103DC00000E875F003A4C8ACF075F000A42CFC75F5
:103DD000F003E9A42CF9EA28F582EB39F583E0F445
:103DE000FCA3E0F4FDEFF87900E875F003A4C8AE99
:103DF000F075F000A42EFE75F003E9A42EF9EA2870
:103E0000F582EB39F583ECF0A3EDF0EFF87900E8FB
:103E100075F003A4C8ACF075F000A42CFC75F00399
:103E2000E9A42CF9EA28F582EB39F583A3A3E0F4A1
:103E3000C0E0EFF87900E875F003A4C8ACF075F0C5
:103E400000A42CFC75F003E9A42CF9EA28F582EB18
:103E500039F583A3A3D0E0F00F023DB47F01021E29
:103E60007C74F0121DAA74F4121D3AEAFEEBFF8C6A
:103E7000218D22900873E0F8A3E0F9E849702CEE58
:103E80004F6006E52145227005790102410DEEFAE9
:103E9000EFFB1215B1E9900DB4F0900DB4E0C394AE
:103EA0000A40081215C3E9900DB4F0900DB4E0C3B8
:103EB000940A400302410B900873E0F8A3E0F9E88C
:103EC000496003023F57EEFCEFFD7A0E75F0069055
:103ED0000DB4E0A42420F9121923E9F5257C0C7D0A
:103EE0000079FFAA41AB421213238A278B2885272A
:103EF00023852824AC41AD427A0C900DB4E02470A7
:103F0000F9121923E9F52675270E7528007827126E
:103F10001FBDEEFCEFFD900DB4E0F87900E875F000
:103F20000EA4C8AAF075F000A42AFA75F00EE9A450
:103F30002AF974DB28FA740739FB12130B74021286
:103F40001D508A278B28A827A928900873E521F0FF
:103F5000A3E522F0024107900873E0F8A3E0C8242B
:103F600006F582C83400F583E0F8A3E0F9E849607B
:103F700043900873E0F8A3E0C82406F582C8340033
:103F8000F583E0FCA3E0FD7A1B75F006900DB4E02C
:103F9000A42421F9121923E9F8900873E0F9A3E0A9
:103FA000C92406F582C93400F5837400F0A37400B7
:103FB000F0024107900873E0F8A3E0C8240AF582F4
:103FC000C83400F583E0F8A3E0F9E84960439008BD
:103FD00073E0F8A3E0C8240AF582C83400F583E052
:103FE000FCA3E0FD7A1B75F006900DB4E0A424223A
:103FF000F9121923E9F8900873E0F9A3E0C9240A3B
:10400000F582C93400F5837400F0A37400F0024116
:1040100007900873E0F8A3E0C8240CF582C83400C8
:10402000F583E0F8A3E0F9E8496043900873E0F80D
:10403000A3E0C8240CF582C83400F583E0FCA3E0BB
:10404000FD7A1075F006900DB4E0A42423F912193E
:1040500023E9F8900873E0F9A3E0C9240CF582C9BC
:104060003400F5837400F0A37400F0024107900857
:1040700073E0F8A3E0C82408F582C83400F583E0B3
:10408000F8A3E0F9E849606F900873E0F8A3E0C88E
:104090002408F582C83400F583E0FCA3E0FD7A1023
:1040A00075F006900DB4E0A42424F9121923E9F563
:1040B00023900873E0F8A3E0C82408F582C8340010
:1040C000F583E02410FCA3E03400FD7A0475F006CB
:1040D000900DB4E0A42425F9121923E9F89008738F
:1040E000E0F9A3E0C92408F582C93400F58374001F
:1040F000F0A37400F08010900867E06003121617B8
:104100001215FF79018006790080027901740C1282
:104110001D507F08021E7C74F7121DAA74F2121D36
:104120003AE9FEAC41AD427A0E75F006EEA42420C9
:10413000F9121929E9700E740C121D86E0F8A3E03B
:10414000F9E8F980027900740E121D507F01021EF9
:104150007C74F4121DAA74F2121D3A8922EAFEEB55
:10416000FFE522C3940A5004EE4F700479028041A7
:10417000AC41AD427A0E75F006E522A42420F91276
:104180001929E9F521E521702675230675240078A3
:1041900023121FBD7402121DA0EEFAEFFB12130BC7
:1041A0007402121D508A238B24852382852483A9BF
:1041B00021740E121D507F04021E7C74F4121DAA7D
:1041C000EAFEEBFF752100E521C3940A50447523F4
:1041D000067524007823121FBDEEFCEFFDE521F8E3
:1041E0007900E875F00EA4C8AAF075F000A42AFAC8
:1041F00075F00EE9A42AF974E128FA740739FB1264
:10420000131D7402121D50E96004A92180060521C6
:1042100080B5790A7F04021E7C74F4121DAAEAFE9E
:10422000EBFF752100E521C3940A50447523067500
:1042300024007823121FBDEEFCEFFDE521F8790084
:10424000E875F00EA4C8AAF075F000A42AFA75F07B
:104250000EE9A42AF974DB28FA740739FB12131D3E
:104260007402121D50E96004A9218006052180B561
:10427000790A7F04021E7C74F7121DAA74F0121DC5
:104280003AEAFEEBFF752100E521C3940A5039ACF0
:1042900041AD427A1075F006E521A42423F91219E4
:1042A00029E970207C1079FFAA41AB42121383E9FF
:1042B0007012EEFCEFFDAA41AB4212091BE970043B
:1042C000A9218006052180C0790A7410121D507F33
:1042D00001021E7C74F4121DAA752100E521C3940D
:1042E0000A40030243B2E521F87900E875F00EA414
:1042F000C8AAF075F000A42AFA75F00EE9A42AF90C
:1043000074DB28FC740739FD7A0E75F006E521A4EC
:104310002420F9121929E970030243AD7C067D00BF
:1043200079FFE521FA7B00EA75F00EA4CAA8F075C2
:10433000F000A428F875F00EEBA428FB74DB2AFA31
:1043400074073BFB1213238A238B24AE23AF247CF8
:10435000067D0079FFE521FA7B00EA75F00EA4CA1C
:10436000A8F075F000A428F875F00EEBA428FB74F3
:10437000E12AFA74073BFB1213238A238B24AC2314
:10438000AD24E521F87900E875F00EA4C8AAF0750F
:10439000F000A42AFA75F00EE9A42AF974E728F5CA
:1043A00082740739F5837400F0A37400F0052102CC
:1043B00042DC900867E060031216171215FF7F04B5
:1043C000021E7C74F7121DAA7E00EEC3940A5032BE
:1043D0007C0679FFEEFA7B00EA75F00EA4CAA8F01D
:1043E00075F000A428F875F00EEBA428FB74DB2A06
:1043F000FA74073BFB121383E96004EEF980050EA3
:1044000080C8790A7F01021E7C74F7121DAA7E0003
:104410007F00EFC3940A502F7C0679FFEFFA7B00F0
:10442000EA75F00EA4CAA8F075F000A428F875F09B
:104430000EEBA428FB74DB2AFA74073BFB121383F0
:10444000E970010E0F80CBEEF97F01021E7C74F73C
:10445000121DAA7E007F00EFC3940A500DEE700A71
:10446000EFF91215D5E9FE0F80EDEEF97F01021E7E
:104470007C74F0121DAA74CB121D3A8922900DB4DF
:10448000E06522701D7A017B009007BFE0F91213EE
:1044900065E97A027B009007BFE0F9121365E91223
:1044A00016237427121DA07A0E75F006E522A424A7
:1044B00020F9121929E960030245A97C0679FF74E5
:1044C00027121D98121383E960030245A97C0E7D13
:1044D0000079FF7427121D981213238A238B2485D9
:1044E00023258524267C1B7D0079FF740C121D98E2
:1044F0001213238A278B288527238528247C0C7D6B
:104500000079FFAA41AB421213238A278B28AE27DA
:10451000AF287427121DA07A0E75F006E522A42498
:1045200020F9121923E9F521740C121DA07A1B75CC
:10453000F006E522A42421F9121923E94221740C82
:10454000121DA07A1B75F006E522A42422F9121987
:1045500023E94221740C121DA07A1075F006E522A1
:10456000A42423F9121923E94221740C121DA07A04
:104570001075F006E522A42424F9121923E942213A
:10458000740C121DA07A0475F006E522A42425F906
:10459000121923E94221AC41AD427A0C74702522F4
:1045A000F9121923E942218003752100A9217435EC
:1045B000121D507F08021E7C74F7121DAAE9FEEE40
:1045C0009007BFF01215BD7F01021E7C74F2121D10
:1045D000AA8923EAFEEBFFEE5400F8EF5480F9E8D5
:1045E0004960359007BFE0F91213478A258B26A84A
:1045F00025A92688218922E8496012AA21AB221226
:1046000015E7E96008AA21AB22121335E9EE640030
:10461000FAEF6480FB0246D0EE5402602D7C007DF0
:10462000007A007B00121599E960187A017B0090EE
:1046300007BFE0F912135FE9EE6402FAEF6400FBD2
:104640000246D07A027B000246D0EEA2E0507D9076
:104650000873E0F8A3E0F5838882A3A3A3E0FAA39C
:10466000E0FB12161DE9605E9007D9E0F8A3E0F9BF
:10467000E84960459007D9E0F8A3E0F5838882A374
:10468000A3E0F8A3E0F9E849602F7C0079019008E5
:1046900073E0F8A3E0F5838882A3A3A3E0FAA3E084
:1046A000FB9007D9E0F8A3E0F5838882A3A3E0F8A4
:1046B000A3E0F5838882121DA8121623EE6401FA86
:1046C000EF6400FB800A7A017B0080047A007B00A3
:1046D0007F06021E7C74F7121DAAEAFEEBFF75210D
:1046E000018E828F83E02450601314601924E170DE
:1046F0001CEEFAEFFB12157BE9F5218010EEFAEFC4
:10470000FB1215ED8007EEFAEFFB1215F3A9217FDE
:1047100001021E7C74F7121DAAEAFEEBFF8E828F47
:1047200083A3A3A3A3E0641E701179008E828F83FC
:10473000A3A3E0FAA3E0FB121569E97F01021E7C46
:1047400074F6121DAAEAFEEBFF8E828F83A3A3A349
:10475000A3E0703A8E218F22852182852283A3A334
:10476000A3A3A3A3A3121FD4852182852283A3A37D
:10477000A3A3A3E0FCA3E0FD852182852283A3A35C
:10478000E0FAA3E0FB12156F7402121D50E97F02DC
:10479000021E7C74F7121DAAEAFEEBFF9007BFE031
:1047A000F98E828F83A3E0FAA3E0FB120BA3E97FCB
:1047B00001021E7CC082C08374FF121D3A1215C90B
:1047C000E9C39402400B8541828542837402F080E4
:1047D00009854182854283740AF0AC41AD427A0179
:1047E0007905120A29E97401121D50D083D0820282
:1047F000013274F2121DAA74E8121D3AEAFEEBFFB0
:1048000089238C218D227C187D007900AA41AB423E
:104810001213238A258B26AC25AD2685418285423D
:1048200083EEF0A3EFF09007C1E0C0E07402121D28
:1048300086D0E0F09007C2E0C0E07403121D86D07D
:10484000E0F0900DB3E0C0E07417121D86D0E0F0E8
:104850007415121D86E054FEF8A3E054FFF9900D84
:10486000B2E0A2E0E433FA7B00E84AF8E94BF974DD
:1048700015121D86E8F0A3E9F0900DB2E0A2E15018
:1048800004D2F08002C2F07415121D86E054FDFAC5
:10489000A3E054FFFBA2F0E433F87900E828F8E93C
:1048A00033F9EA48F8EB49F97415121D86E8F0A3CC
:1048B000E9F0900DB2E0A2E35004D2F08002C2F021
:1048C0007415121D86E054F7FAA3E054FFFBA2F022
:1048D000E433F52575260074037825121D27EA4573
:1048E00025F8EB4526F97415121D86E8F0A3E9F0CA
:1048F000900DB2E0A2E45004D2F08002C2F0741530
:10490000121D86E054EFFAA3E054FFFBA2F0E4335B
:10491000F52575260074047825121D27EA4525F82B
:10492000EB4526F97415121D86E8F0A3E9F0900D09
:10493000B2E0A2E55004D2F08002C2F07415121D5C
:1049400086E054DFFAA3E054FFFBA2F0E433F52540
:1049500075260074057825121D27EA4525F8EB45D4
:1049600026F97415121D86E8F0A3E9F0900DB2E067
:10497000A2E25004D2F08002C2F07415121D86E04B
:1049800054FBFAA3E054FFFBA2F0E433F5257526AF
:104990000074027825121D27EA4525F8EB4526F913
:1049A0007415121D86E8F0A3E9F09007C2E0602AB2
:1049B0007525107526007825121FBD7CC37D0774F0
:1049C00006121D86AA82AB8312130B7402121D50AD
:1049D0008A258B268525828526839007D3E0601261
:1049E000E523600E7415121D86E04402F0A3E04436
:1049F00000F09007D3E06006780179008004780029
:104A000079007414121D86E048F09007C0E060063B
:104A1000780479008004780079007414121D86E00F
:104A200048F0AC21AD22AA41AB4212093FE974180B
:104A3000121D507F06021E7C74F7121DAAEAFEEBBF
:104A4000FF7521009007D3E06006780179008004AB
:104A500078007900E842219007C0E0600678047988
:104A600000800478007900E84221A921EEFAEFFBEA
:104A70001209F9E97F01021E7C74EE121DAA74E589
:104A8000121D3A8A258B26E9FF8C218D22742D1266
:104A90001D86E0F52374086522700A75F006EFA400
:104AA0002422FE800875F006EFA42421FE7C1B7DE5
:104AB000007900AA41AB421213238A298B2A852947
:104AC00027852A28AC41AD427A1BEEF9121929E953
:104AD0007038741A121D86E0C39407402D741A12A0
:104AE0001D86E0C394115022E523F5247824121F7B
:104AF000C17401121DA0E521A2E0E433F9AA25AB9F
:104B0000261209517401121D50E9741B121D507FA9
:104B10000A021E7C74F7121DAA120C1BE97E00EE1D
:104B2000C3940A50557C0679FFEEFA7B00EA75F0D3
:104B30000EA4CAA8F075F000A428F875F00EEBA436
:104B400028FB74DB2AFA74073BFB121383E97027F6
:104B5000EEF87900E875F00EA4C8AAF075F000A48C
:104B60002AFA75F00EE9A42AF974DB28FA740739D9
:104B7000FB7900120C21E90E80A57F01021E7C74D6
:104B8000F6121DAA74FD121D3AEAFEEBFF9008759D
:104B9000E0F8A3E0F9E849703975217775220878C3
:104BA00021121FBD7521027522007821121FBD75CB
:104BB00021E67522837821121FBD7CFF7DFF7A01DB
:104BC0007B00120A6B7406121D50900875EAF0A360
:104BD000EBF0900875E0F8A3E0F9E8497003024CA7
:104BE0009CE4F521F5227821121FBD7404121D905A
:104BF000882189227821121FBD7404121D908821FA
:104C000089227821121FBD900877121FD479029053
:104C10000875E0FCA3E0FDEEFAEFFB120B917408BF
:104C2000121D50E9704A854182854283E0FA7B007B
:104C30007401121D86E0F87900E4C8F9EA28F5212C
:104C4000EB39F522E521452260267821121FBD901F
:104C50000875E0F8A3E0F5838882A3A3A3A3E0FC92
:104C6000A3E0FDEEFAEFFB12156F7402121D50E97E
:104C7000E4F521F5227821121FBD900877121FD488
:104C80007CFF7DFF900875E0FAA3E0FB120A7774C1
:104C900004121D50900875EAF0A3EBF0900875E03F
:104CA000F8A3E0F9E84970047901800279007403FF
:104CB000121D507F02021E7CC082C083900873E0E8
:104CC000F8A3E0F9E8496017900873E0FAA3E0FB65
:104CD000121335E9F89008737400F0A37400F09093
:104CE0000DB4740AF0D083D082020132C082C08336
:104CF000E9900AB9F0024F7B74F7121DAAE99002FD
:104D0000E1F07C197D037AFF7BFF120BA99002E290
:104D100074FFF0A3F0A3E4F0A3F07905120B319037
:104D200002E1E0F9120A537AC77B0B120D717F0181
:104D3000021E7C74F4121DAA8A218B22EB5480601F
:104D4000309002E1E0F91213478A238B24AE23AF9F
:104D500024EE4F60138E828F83E064B07003120BD9
:104D600049EEFAEFFB121335AA21E5226480FB809D
:104D7000047A007B00024F4A74F2121DAA74FC12DE
:104D80001D3AEAFEEBFFEE4F60387402121D86EE0C
:104D9000F0A3EF1251AFECF0A3ED1251AFAA82AB2A
:104DA00083120A4DE9F52170737412121D86125D8B
:104DB00063E523452460658E828F83124E26EE4F75
:104DC000700575210280557A067B001213A18A2591
:104DD0008B26A825A926E8497005752113803D88F2
:104DE000828983E4124E30A3A3EEF0A3EF1261FC9C
:104DF000E523F0A3E524F09002E7124EB89002E715
:104E00006017E0FCA3E08003EAFCEBFD8C828D835D
:104E1000124EB870F38C828D83125C88A9217404C1
:104E2000121D500263FEA3A3A3A3E0FEA3E0FF2292
:104E3000F0A3F0888289832274F2121DAA8923E9E3
:104E400075F017A4FEAFF09002E6E4F09002E412D1
:104E50004EB8600A1213A79002E4E4F0A3F0EEFA51
:104E6000EFFB1213A18A218B22EA4522602FEEFC70
:104E7000EFFD79001213239002E4E521F0A3E5226F
:104E8000F07B008008124EA2E4F0A3F00BEBC39578
:104E90002340F2E5239002E6F079008002791302C4
:104EA00063FEEB75F017A4F8A9F09002E4E028FA8D
:104EB000A3E0398A82F58322125A1EEA4B2274F447
:104EC000121DAA752100752200740C121D86126134
:104ED000D0FEE9FF800CE5212401F521E522340014
:104EE000F522C3E5219CE5229D50328521238522B0
:104EF0002474037823121D27EA2523F8EB3524F9BF
:104F000088828983A3A3A3A3A3A3125D63EE652371
:104F10007003EF652470BFE8FAE9FB80047A007B38
:104F200000802774F4121DAA7900EAA2E0501B75D4
:104F300021107522837821121FBD7C047D007ABB6D
:104F40007B0A120B2B7402121D507F04021E7CC0C0
:104F500082C0839002E7124F82601C88828983A3FB
:104F6000A3E06A7003A3E06B8882898370E8A3A33F
:104F7000A3A3125A1A80047A007B00D083D0820245
:104F800001321264D1E8492274EE121DAA74FC1297
:104F90001D3AEAFEEBFF854182854283E4F0A3F0EF
:104FA000EE2402125C6CEE240512519DEE2404F5F1
:104FB00027EF125582E024FE603924FC604624FE6F
:104FC000605224FE605E24FE70030250A224FE7034
:104FD0000302511A24FE700302512924FE700302B9
:104FE000513824FC700302514724FE7003025156CD
:104FF0000251939003007417F0A3E41251B7120703
:10500000CB025193854182854283AC82AD83120BE2
:105010004F025163854182854283AC82AD83120B7E
:10502000550251638525218526227402121D86AC06
:1050300082AD83852182852283125A1A120A718ACF
:10504000258B26AC25AD26EC4D6042E4F525F526F2
:105050007825121FBD7525007526037825121FBD02
:105060007525017526037825121FBD7408121D864B
:10507000121FD47916125A14120B917408121D5073
:10508000E9F525700B125A101207E3800F75250100
:105090008521828522831251A5125C8885252102F3
:1050A00051667402121D86AC82AD838525828526E9
:1050B00083125A1A120A718A298B2AAC29AD2AEC5A
:1050C0004D6043852582852683A3A3121FD47529AD
:1050D00000752A037829121FBD752901752A0378E6
:1050E00029121FBD7408121D86121FD47916125A78
:1050F00014120B917408121D50E9F522700B125A0C
:10510000101207E9800F75220185258285268312FA
:1051100051A5125C88852221804C8541828542837D
:10512000AC82AD83120B5B803A854182854283ACB1
:1051300082AD83120B61802B854182854283AC82D4
:10514000AD83120B67801C854182854283AC82ADA2
:1051500083120B6D800D854182854283AC82AD83C5
:10516000120B73E9F521E52160298E828F83A3E07C
:105170006414601F852782852883E0900300125104
:10518000AF1264CD900301125C88E521A31251B7E0
:105190001207C5EEFAEFFB120AEF025B74F525EF7A
:1051A0003400F526221264D185418285428322F0A3
:1051B00085418285428322F07C007D0385238285A0
:1051C0002483125A1E2274EE121DAA74FC121D3A78
:1051D0008A238B248C278D28EA2405F521EB3400C3
:1051E000F5227C157D0079007A007B03121323E5FC
:1051F000212402F525E5221251A0854182854283B2
:1052000085822985832A7829121FBD8521828522DE
:1052100083A3A3A3A31256CA121FBDE5212405F53B
:1052200029E5223400F52A7829121FBD85258285BB
:105230002683125A24120A6B7406121D508A298B77
:105240002AAE29AF2AE5232402F523E524125C6F58
:10525000EE4F700302538C80177402121D86125A8F
:105260001A88828983EAF0A3EBF0900300E004F04F
:10527000900300E0C39405400302538CE4F529F544
:105280002A7829121FBD7529E9752A027829121F6B
:10529000BD7529EA752A027829121FBD7406121DF0
:1052A00086121FD47910EEFCEFFD125A14120B91E6
:1052B0007408121D50E9705E852182852283A3A3A4
:1052C000A3A3A3A3A3E0F89002E9E06870481256F4
:1052D000CA121FBD7CEA7D02E5212408FAE52234CA
:1052E00000FB12131D7402121D50E960298E828F7B
:1052F00083A3A3A3A3125A1A900300E0F529740212
:105300007829121D2774012529F5827403352AF5A1
:1053100083EAF0A3EBF07402121D8685822985834F
:105320002A7829121FBD7402121D86121FD48525EA
:10533000828526831264E2120A777404121D508A51
:10534000298B2AAE29AF2A900300E0F529752A009F
:1053500074027829121D2774002529F87403352A50
:10536000F988828983A3124EB87003025250E82450
:1053700003F8E93400F9EE4F60030252598882893C
:105380008374FFF0A3F0900300E004F0900300E0CA
:10539000600A125A101207D77900800B8521828586
:1053A0002283125C7F790A025B7474EA121DAA746C
:1053B000FE121D3A8C2B8D2CEA2405F525EB126686
:1053C0004C124E2A752100752200EA2402F529EBC1
:1053D0003400F52A85418285428385822385832492
:1053E0007823121FBD852582852683A3A3A3A3123C
:1053F000558C121FBDE5252405F523E526125C6FAB
:105400007823121FBD8525828526831264E0120A47
:105410006B7406121D508A238B24EA452470030204
:10542000553DEA2404F527EB125582124E2A8A8252
:105430008B83A3A3A3E0F9852982852A83125A1AB4
:10544000120A59E9F522600302553DE4F52DF52EC7
:10545000782D121FBD752DE9752E02782D121FBDF6
:10546000752DEA752E02782D121FBD7406121D8649
:10547000121FD47913AC23AD24852982852A831287
:105480005A1A120B917408121D50E9F5226003029A
:10549000553D9002E9E0F8E5217009E0240290030F
:1054A00001F08017900301E0FCE82402FAE43400E4
:1054B000FBEA6C7001EB6003025541852182AA82F0
:1054C0001256C194141256B95073852782852883C9
:1054D000E0C0E074022A125579D0E0F0052185275A
:1054E00082852883A3E0C0E085212374022523124E
:1054F0005579D0E0F005219002E912558C121FBDBC
:105500007CEA7D0285212374022523FA740334008A
:10551000FB12130B7402121D509002E9E02521F5D5
:105520002174FF6E700374FF6F6012EE24010EEFA2
:105530003400FFE521C3941450030253D4E52160E5
:1055400013125905852982852A83125A1A1207DDFA
:1055500079008014E522700375220A852B82852C40
:1055600083EEF0A3EFF0A9227402121D507F0E0209
:105570001E7C85212574022525F58274033400F5EF
:1055800083223400F528852782F5832212620F22B8
:1055900074EE121DAA74FE121D3A8C278D28EA247F
:1055A00005F525EB1251A0752400900300E4F0F5F9
:1055B00023EA2402F521EB3400F522804990030010
:1055C000E0FA9002E9E0F81256C194171256B94079
:1055D0000D900300E0F87416C3989002E9F012569B
:1055E000CA121FBD7CEA7D0274012AFA74033400DA
:1055F000FB12130B7402121D509002E9E0F89003A5
:1056000000E028F00523E5252416F582E52612554D
:105610007DE0F8E523C39840030256A2900300E022
:10562000C39416507DE523C333F8E433F9E5252808
:10563000FEE52639FF854182854283AC82AD838EAB
:10564000828F83125A1A120A718A298B2AAC29ADC9
:105650002AEC4D70057524018043E4F529F52A787C
:1056600029121FBD7529E9752A027829121FBD75F7
:1056700029EA752A027829121FBD7406121D8612A6
:105680001FD47916852182852283125A1A120B9112
:105690007408121D50E9F52470030255BD125C7B9D
:1056A00080107C007D03852182852283125A1A1284
:1056B00007EFA9247402025B76E99400C365D03336
:1056C00022EA28F8E43400F9E822E0F529752A00F6
:1056D00078292274EA121DAA74FC121D3A8A258BBD
:1056E000268C2B8D2CEA2405F523EB125C6F75219B
:1056F00000752200E5232402F529E5243400F52A6B
:105700007402121D868582278583287827121FBD83
:10571000852382852483A3A3A3A31261BB121FBD8B
:10572000E5232405F527E5243400F5287827121F02
:10573000BD852982852A83125C75125A14120A6B60
:105740007406121D508A278B28AE27AF28E5252422
:1057500002F527E5263400F5288040888289837485
:10576000FFF0052112557274FFF005219002E9E067
:10577000F5257526007825121FBD7CEA7D0285215E
:105780002574022525FA74033400FB12130B7402EE
:10579000121D509002E9E02521F521EE4F60718E37
:1057A000828F83A3A3A3E0F9852782852883125AD9
:1057B0001A120A59E9F522EE240412519DE97044A7
:1057C000E4F52DF52E782D121FBD752DE9752E02ED
:1057D000782D121FBD752DEA752E02782D121FBD72
:1057E0007408121D86121FD47911EEFCEFFD852777
:1057F00082852883125A1A120B917408121D50E9DF
:10580000F52260278525828526831258FB125C8845
:10581000E52170030258E112590585278285288306
:10582000125A1A1207F579000258F6852182AA82C7
:10583000EA9002E97009E02404900301F08022E07C
:10584000F8900301E0F52DE82404FCE43400FDECBD
:10585000652D7001ED70C01256C194121256B950E8
:10586000B6852582852683E0C0E074022A12557928
:10587000D0E0F00521852582852683A3E0C0E012D3
:105880005572D0E012591785822585832678251216
:105890001FBD7404121D86121FD4852982852A8398
:1058A0001264E2120A777404121D508A258B26AE08
:1058B00025AF2685212574022525F874033400F9C7
:1058C000EE4F700302575B854182854283E08882F8
:1058D0008983125917A3E0C0E0125572D0E0025735
:1058E00069E522700375220A852382852483125874
:1058F000FB125C88A922740402556A1264D1852BBC
:1059000082852C8322900301E0F5F0E52184900349
:1059100000F07C007D0322F00521854182854283D1
:105920002274EC121DAA74FE121D3A8A218B228C5D
:10593000278D28EA2405FEEB3400FF85418285424D
:1059400083AC82AD838E828F83125A1A120A718AB7
:10595000238B24EE241812519DEA4524700302592A
:10596000EB125B5D5032854182854283125A1A12D6
:105970000B858A298B2AEA452A606B7912AC23AD04
:1059800024852182852283125A1A852982852A83B9
:10599000121DA8E9F5237058E4F523F524782312A5
:1059A0001FBD8E828F83A3A3E0F5237823121FBD32
:1059B000EE2403125C6C7823121FBD8E828F83123B
:1059C0005A24120B977406121D50E9F52370218595
:1059D0002582852683E0701F852182852283125AC5
:1059E0001A1207FB801175230E80097523018004AC
:1059F000E5236003125C7B852582852683E06004B5
:105A000079008002A9237402121D507F0C021E7CB3
:105A10007C007D03852382852483125A1E22E0FAAE
:105A2000A3E0FB22E0FCA3E0FD8521828522831216
:105A30005A1E2274EE121DAA74FE121D3A8A218B80
:105A4000228C258D26EA2405FEEB3400FF75270005
:105A5000854182854283AC82AD838E828F83125AC8
:105A60001A120A718A238B24EA45247003025B49C7
:105A7000125B5D5035854182854283125A1A120BA2
:105A8000858A278B28EA4528605E7912AC23AD24ED
:105A9000852182852283125A1A85278285288312BE
:105AA0001DA8E9F5276003025B4C852182852283CE
:105AB000125D63AA23FB120B798A298B2AA829A9D4
:105AC0002AE849701E7AFF7BFF120B798A298B2AFC
:105AD000A829A92AE849606C88828983E523F0A374
:105AE000E524F0752300800775270E805F0523905D
:105AF00002E6E0FAE523C39A504AE52375F017A4BD
:105B0000FAABF088828983A3A3E02AFAA3E03BFBE7
:105B10008A828B83125C75EC4D70D27523177524C5
:105B2000007823121FBDEEFCEFFD12130B7402125E
